:100000000C942A000C943C000C943C000C943C0092
:100010000C943C000C943C000C943C000C943C0070
:100020000C943C000C943C000C943C000C943C0060
:100030000C943C000C943C000C943C000C943C0050
:100040000C943C000C943C000C943C000C943C0040
:100050000C943C0011241FBECFE5D8E0DEBFCDBF1D
:1000600020E0A0E6B0E001C01D92AA36B207E1F799
:100070000E943E000C94E6010C940000E3E6F0E0E0
:100080001082C1E0C1831282C3831482158216825A
:10009000CF010E943E01E1E6F0E0C08384E081836D
:1000A000CF010E94AD0181E690E00E94DA0180E676
:1000B00090E00E94C201809160008F5F8093600099
:1000C0002FE986E891E0215080409040E1F700C0A0
:1000D000000080E690E00E94C201809160008F5F86
:1000E0008093600080E690E00E94C20180916000F1
:1000F0008F5F8093600080E690E00E94C201809153
:1001000060008F5F8093600081E690E00E94CE01E6
:10011000CACF6830A0F581110BC08AB350E002C08D
:10012000440F551F6A95E2F7482B4ABB80E00895BB
:10013000813059F487B350E002C0440F551F6A95CF
:10014000E2F7482B47BB80E00895823059F484B32E
:1001500050E002C0440F551F6A95E2F7482B44BB9C
:1001600080E00895833069F481B350E002C0440F09
:10017000551F6A95E2F7482B41BB80E0089581E066
:10018000089582E00895683008F074C081111BC0A2
:10019000413061F42BB381E090E002C0880F991FD9
:1001A0006A95E2F7822B8BBB80E008952BB381E048
:1001B00090E002C0880F991F6A95E2F7809582232C
:1001C0008BBB80E008958130D9F4413061F428B3CD
:1001D00081E090E002C0880F991F6A95E2F7822BB8
:1001E00088BB80E0089528B381E090E002C0880FCA
:1001F000991F6A95E2F78095822388BB80E0089575
:100200008230D9F4413061F425B381E090E002C03E
:10021000880F991F6A95E2F7822B85BB80E00895CD
:1002200025B381E090E002C0880F991F6A95E2F73C
:100230008095822385BB80E008958330E9F44130C6
:1002400061F422B381E090E002C0880F991F6A95A3
:10025000E2F7822B82BB80E0089522B381E090E038
:1002600002C0880F991F6A95E2F78095822382BBAE
:1002700080E0089581E0089582E00895CF93DF93B0
:10028000009709F466C0EC018B818130C9F441E02C
:1002900064E00E94890041E064E081E00E94C300C4
:1002A00041E065E081E00E94890041E067E081E093
:1002B0000E94890040E066E081E00E94890016C04B
:1002C000811114C040E064E081E00E94890040E0B8
:1002D00065E081E00E94890040E067E081E00E94E3
:1002E000890041E066E081E00E9489006A8180E245
:1002F000689FF00111249B8180E1989FB001112437
:10030000988180E8989FA00111249D81292F30E0D9
:10031000220F331F220F331F9C81892F90E0880FFB
:10032000991F880F991F880F991F9E816E2B462B4E
:10033000242B822B892B8DB99EB18E81907F86953F
:1003400086958695892B8EB98DB180648DB981E0B3
:1003500001C080E0DF91CF910895CF93DF930097A4
:1003600069F0EC0141E0698188810E94890041E0E7
:10037000698188810E94C30081E001C080E0DF9133
:10038000CF910895009741F01FB8779BFECF2FB112
:10039000FC01208381E0089580E00895009741F0FA
:1003A000FC0141E0618180810E94C30081E00895E9
:1003B00080E00895009741F0FC0140E06181808178
:1003C0000E94C30081E0089580E00895F894FFCF73
:00000001FF
